:100000000C9446000C945D000C945D000C945D0013
:100010000C945D000C945D000C945D000C945D00EC
:100020000C945D000C945D000C945D000C945D00DC
:100030000C945D000C945D000C945D000C945D00CC
:100040000C945D000C945D000C945D000C945D00BC
:100050000C945D000C945D000C945D000C945D00AC
:100060000C945D000C945D000C945D000C945D009C
:100070000C945D000C945D000C945D000C945D008C
:100080000C945D000C945D000C945D0011241FBE67
:10009000CFEFD0E1DEBFCDBF11E0A0E0B1E0E6E4FC
:1000A000F2E000E00BBF02C007900D92AA30B1074A
:1000B000D9F70E9465000C9421010C940000680F90
:1000C000791FFB01808185BB0895AF92BF92CF92CB
:1000D000DF92EF92FF920F931F93CF93DF938FEFF7
:1000E00084BB9EEF91BB909A97B387BB98B398B3AC
:1000F00088BBE0E0F0E020E030E0CAE0D0E0FF24A0
:10010000FA9449E60EEB1BEE77EDE72E6DE7D62E5F
:100110005AEAC52E95E5B92E86E9A82EC901BE0179
:100120000E94FA0080509F4FDC018C9185BB309774
:1001300071F480991CC02F5F3F4F8FEF91EEA4E0C8
:1001400081509040A040E1F700C000000EC0809BAD
:100150000CC08FEF91EEA4E081509040A040E1F7F9
:1001600000C00000E0E0F0E002C0E1E0F0E0C90122
:10017000BE010E94FA0081309105A1F18230910503
:1001800021F488B388B3A8BAC9CF8330910521F48C
:1001900088B388B3B8BAC2CF8430910521F488B34C
:1001A00088B3C8BABBCF8530910521F488B388B332
:1001B000D8BAB4CF8630910521F488B388B3E8BAB1
:1001C000ADCF8730910521F488B388B318BBA6CF93
:1001D0008830910521F488B388B308BB9FCF89305C
:1001E000910521F488B388B348BB98CF88B388B30E
:1001F000F8BA94CF97FB092E07260AD077FD04D0D2
:100200000CD006D000201AF4709561957F4F0895A8
:10021000F6F7909581959F4F0895AA1BBB1B51E15E
:1002200007C0AA1FBB1FA617B70710F0A61BB70B66
:10023000881F991F5A95A9F780959095BC01CD010B
:060240000895F894FFCFC1
:0A02460088BEC4A4B2A183B880B042
:00000001FF
