:100000000C9446000C9465000C9465000C946500FB
:100010000C9465000C9465000C9465000C946500CC
:100020000C9465000C9465000C9465000C946500BC
:100030000C9465000C9465000C9465000C946500AC
:100040000C9481010C9465000C9465000C9465007F
:100050000C9465000C9465000C9465000C9465008C
:100060000C9465000C9465000C9465000C9465007C
:100070000C9465000C9465000C9465000C9465006C
:100080000C9465000C9465000C94650011241FBE4F
:10009000CFEFD0E1DEBFCDBF11E0A0E0B1E0E2E202
:1000A000F5E000E00BBF02C007900D92A230B1074F
:1000B000D9F711E0A2E0B1E001C01D92AC30B10768
:1000C000E1F70E94C0010C948F020C94000080E0C4
:1000D00090E041E050E060B39A01082E02C03595EF
:1000E00027950A94E2F770E026233723211531057E
:1000F00061F0609102019A01082E02C0220F331FA5
:100100000A94E2F7622B6093020101968830910510
:1001100011F7089580E090E020E030E061E070E0C9
:10012000E0910201AB01022E02C0559547950A9459
:10013000E2F7F0E04E235F234115510509F00196E7
:100140002F5F3F4F2830310559F78130910599F4E1
:100150009091000180910201891708F4A3C0909149
:10016000000180910201981708F497C09091000156
:10017000809102019BC0823091050CF49AC080915D
:100180000301823009F045C080E090E020E030E0DB
:100190004091000150E0022E02C0559547950A9407
:1001A000E2F740FDC9012F5F3F4F2830310581F74D
:1001B00060E070E020E030E00DC04091000150E0D0
:1001C000022E02C0559547950A94E2F740FDB90109
:1001D0002F5F3F4F2817390784F3019640E050E026
:1001E0000CC02091000130E0082E02C03595279503
:1001F0000A94E2F720FDAC010196883091058CF35A
:100200006115710509F04EC04115510509F44EC044
:1002100044C080910301813009F04DC080E090E03E
:1002200020E030E04091000150E0022E02C05595E0
:1002300047950A94E2F740FDC9012F5F3F4F2830F0
:10024000310581F760E070E020E030E00DC04091C2
:10025000000150E0022E02C0559547950A94E2F73E
:1002600040FDB9012F5F3F4F2817390784F30196EE
:1002700040E050E00CC02091000130E0082E02C0A8
:10028000359527950A94E2F720FDAC010196883058
:1002900091058CF36115710511F081E004C04115E1
:1002A000510521F082E0809303010895109203012B
:1002B000089510920301089580910201882301F1AD
:1002C0008091040190910501A0910601B091070170
:1002D000843F9105A105B10598F4809108019091A2
:1002E0000901A0910A01B0910B010196A11DB11D58
:1002F0008093080190930901A0930A01B0930B0128
:1003000008951F920F920FB60F920BB60F92112401
:100310002F933F934F935F936F937F938F939F930D
:10032000AF93BF93EF93FF938091040190910501E8
:10033000A0910601B09107010196A11DB11D809306
:10034000040190930501A0930601B09307010E9458
:1003500067000E948A000E945C01FF91EF91BF91AB
:10036000AF919F918F917F916F915F914F913F914D
:100370002F910F900BBE0F900FBE0F901F901895EE
:100380008FEF8ABB11BA87B7816087BF83B786605A
:1003900083BF809100018BBB109204011092050174
:1003A0001092060110920701789460E021E030E09D
:1003B00080910201882309F4A9C040910001809135
:1003C0000201909100018423891709F072C0809185
:1003D000080190910901A0910A01B0910B018330AD
:1003E0009105A105B10519F5809103018130F9F45A
:1003F00080E090E04091000150E0082E02C0559549
:1004000047950A94E2F740FD682F019688309105E0
:1004100089F740910201C901062E02C0880F991F79
:100420000A94E2F7809584238093020159C0809159
:10043000080190910901A0910A01B0910B0183304C
:100440009105A105B10509F066C0809103018230D4
:1004500009F061C080E090E04091000150E0082E7A
:1004600002C0559547950A94E2F740FD682F019622
:100470008830910589F740910201C901062E02C01A
:10048000880F991F0A94E2F78095842380930201D4
:1004900080910001869580930001809100018BBBC3
:1004A000109208011092090110920A0110920B019A
:1004B0007FCF9091000180910201892361F58091A5
:1004C000080190910901A0910A01B0910B018130BE
:1004D0009105A105B10541F480910301813021F41A
:1004E00080910001880FD7CF809108019091090178
:1004F000A0910A01B0910B0181309105A105B105D0
:1005000051F480910301823031F4C2CF8091020115
:10051000882309F04DCF809100018BBB49CFF8941F
:02052000FFCF0B
:020522000100D6
:00000001FF
