:100000000C9446000C9450000C9450000C9450003A
:100010000C9450000C9450000C9450000C94500020
:100020000C9450000C9450000C9450000C94500010
:100030000C9450000C9450000C9450000C94500000
:100040000C9450000C9450000C9450000C945000F0
:100050000C9450000C9450000C9450000C945000E0
:100060000C9450000C9450000C9450000C945000D0
:100070000C9450000C9450000C9450000C945000C0
:100080000C9450000C9450000C94500011241FBE8E
:10009000CFEFD0E1DEBFCDBF0E9463000C9417010B
:1000A0000C9400008FEF8ABB87BB8EE781BB1BBA25
:1000B00018BA08958FE683BF12BE089590EA98BBE0
:1000C00081BF8BBB0895AF92BF92CF92DF92EF9228
:1000D000FF920F931F93CF93DF930E9452000E94D1
:1000E0005A0080EA88BB00E010E0C0E0D0E050E2B7
:1000F000A52EBB24BA944FEEE42EF12C34E0C32E8F
:10010000D12C879B16C08FEF91EEA4E081509040D8
:10011000A040E1F700C00000A8BAB1BE8FEF91EE99
:10012000A4E081509040A040E1F700C00000C0E092
:10013000D0E00115110561F4809B1BC08FEF91EE9B
:10014000A4E081509040A040E1F700C000000FC043
:1001500080990DC021968FEF91EEA4E081509040E0
:10016000A040E1F700C0000000E010E002C001E0A4
:1001700010E0CE01877090709C01215030402430F7
:10018000310568F4CE9DC001CF9D900DDE9D900D90
:1001900011249595879595958795805F15C09C014D
:1001A000255030402330310590F4CE9DC001CF9DC5
:1001B000900DDE9D900D1124B6010E94F000709507
:1001C00061957F4F862F82510E945E009ACF0097E3
:1001D00009F097CF80E10E945E00C0E0D0E091CFAF
:1001E00097FB092E07260AD077FD04D00CD006D045
:1001F00000201AF4709561957F4F0895F6F7909559
:1002000081959F4F0895AA1BBB1B51E107C0AA1FF0
:10021000BB1FA617B70710F0A61BB70B881F991FA7
:100220005A95A9F780959095BC01CD010895F89451
:02023000FFCFFE
:00000001FF
